{
  "contractName": "MultisigWallet",
  "abi": [
    {
      "inputs": [
        {
          "internalType": "address[]",
          "name": "_owners",
          "type": "address[]"
        },
        {
          "internalType": "uint256",
          "name": "_required",
          "type": "uint256"
        }
      ],
      "stateMutability": "nonpayable",
      "type": "constructor"
    },
    {
      "anonymous": false,
      "inputs": [
        {
          "indexed": true,
          "internalType": "address",
          "name": "owner",
          "type": "address"
        },
        {
          "indexed": true,
          "internalType": "uint256",
          "name": "txIndex",
          "type": "uint256"
        }
      ],
      "name": "Approve",
      "type": "event"
    },
    {
      "anonymous": false,
      "inputs": [
        {
          "indexed": true,
          "internalType": "address",
          "name": "sender",
          "type": "address"
        },
        {
          "indexed": false,
          "internalType": "uint256",
          "name": "amount",
          "type": "uint256"
        }
      ],
      "name": "Deposit",
      "type": "event"
    },
    {
      "anonymous": false,
      "inputs": [
        {
          "indexed": true,
          "internalType": "uint256",
          "name": "txIndex",
          "type": "uint256"
        }
      ],
      "name": "Execute",
      "type": "event"
    },
    {
      "anonymous": false,
      "inputs": [
        {
          "indexed": true,
          "internalType": "address",
          "name": "owner",
          "type": "address"
        },
        {
          "indexed": true,
          "internalType": "uint256",
          "name": "txIndex",
          "type": "uint256"
        }
      ],
      "name": "Revoke",
      "type": "event"
    },
    {
      "anonymous": false,
      "inputs": [
        {
          "indexed": true,
          "internalType": "uint256",
          "name": "txIndex",
          "type": "uint256"
        }
      ],
      "name": "Submit",
      "type": "event"
    },
    {
      "inputs": [],
      "name": "NbrApprovalRequired",
      "outputs": [
        {
          "internalType": "uint256",
          "name": "",
          "type": "uint256"
        }
      ],
      "stateMutability": "view",
      "type": "function",
      "constant": true
    },
    {
      "inputs": [
        {
          "internalType": "uint256",
          "name": "",
          "type": "uint256"
        },
        {
          "internalType": "address",
          "name": "",
          "type": "address"
        }
      ],
      "name": "isApproved",
      "outputs": [
        {
          "internalType": "bool",
          "name": "",
          "type": "bool"
        }
      ],
      "stateMutability": "view",
      "type": "function",
      "constant": true
    },
    {
      "inputs": [
        {
          "internalType": "address",
          "name": "",
          "type": "address"
        }
      ],
      "name": "isOwner",
      "outputs": [
        {
          "internalType": "bool",
          "name": "",
          "type": "bool"
        }
      ],
      "stateMutability": "view",
      "type": "function",
      "constant": true
    },
    {
      "inputs": [
        {
          "internalType": "uint256",
          "name": "",
          "type": "uint256"
        }
      ],
      "name": "owners",
      "outputs": [
        {
          "internalType": "address",
          "name": "",
          "type": "address"
        }
      ],
      "stateMutability": "view",
      "type": "function",
      "constant": true
    },
    {
      "inputs": [
        {
          "internalType": "uint256",
          "name": "",
          "type": "uint256"
        }
      ],
      "name": "transactions",
      "outputs": [
        {
          "internalType": "address",
          "name": "to",
          "type": "address"
        },
        {
          "internalType": "uint256",
          "name": "value",
          "type": "uint256"
        },
        {
          "internalType": "bytes",
          "name": "data",
          "type": "bytes"
        },
        {
          "internalType": "bool",
          "name": "executed",
          "type": "bool"
        },
        {
          "internalType": "uint256",
          "name": "nbrApprovals",
          "type": "uint256"
        }
      ],
      "stateMutability": "view",
      "type": "function",
      "constant": true
    },
    {
      "stateMutability": "payable",
      "type": "receive",
      "payable": true
    },
    {
      "inputs": [
        {
          "internalType": "address",
          "name": "_to",
          "type": "address"
        },
        {
          "internalType": "uint256",
          "name": "_value",
          "type": "uint256"
        },
        {
          "internalType": "bytes",
          "name": "_data",
          "type": "bytes"
        }
      ],
      "name": "submit",
      "outputs": [],
      "stateMutability": "nonpayable",
      "type": "function"
    },
    {
      "inputs": [
        {
          "internalType": "uint256",
          "name": "_txIndex",
          "type": "uint256"
        }
      ],
      "name": "approve",
      "outputs": [],
      "stateMutability": "nonpayable",
      "type": "function"
    },
    {
      "inputs": [
        {
          "internalType": "uint256",
          "name": "_txIndex",
          "type": "uint256"
        }
      ],
      "name": "execute",
      "outputs": [],
      "stateMutability": "nonpayable",
      "type": "function"
    },
    {
      "inputs": [
        {
          "internalType": "uint256",
          "name": "_txIndex",
          "type": "uint256"
        }
      ],
      "name": "revoke",
      "outputs": [],
      "stateMutability": "nonpayable",
      "type": "function"
    },
    {
      "inputs": [],
      "name": "getOwners",
      "outputs": [
        {
          "internalType": "address[]",
          "name": "",
          "type": "address[]"
        }
      ],
      "stateMutability": "view",
      "type": "function",
      "constant": true
    },
    {
      "inputs": [],
      "name": "getTransactions",
      "outputs": [
        {
          "components": [
            {
              "internalType": "address",
              "name": "to",
              "type": "address"
            },
            {
              "internalType": "uint256",
              "name": "value",
              "type": "uint256"
            },
            {
              "internalType": "bytes",
              "name": "data",
              "type": "bytes"
            },
            {
              "internalType": "bool",
              "name": "executed",
              "type": "bool"
            },
            {
              "internalType": "uint256",
              "name": "nbrApprovals",
              "type": "uint256"
            }
          ],
          "internalType": "struct MultisigWallet.Transaction[]",
          "name": "",
          "type": "tuple[]"
        }
      ],
      "stateMutability": "view",
      "type": "function",
      "constant": true
    }
  ],
  "bytecode": "0x60806040523480156200001157600080fd5b50604051620028213803806200282183398181016040528101906200003791906200055e565b60008251116200007e576040517f08c379a0000000000000000000000000000000000000000000000000000000008152600401620000759062000625565b60405180910390fd5b60008111801562000090575081518111155b620000d2576040517f08c379a0000000000000000000000000000000000000000000000000000000008152600401620000c990620006bd565b60405180910390fd5b60005b82518110156200032557600073ffffffffffffffffffffffffffffffffffffffff168382815181106200010d576200010c620006df565b5b602002602001015173ffffffffffffffffffffffffffffffffffffffff16036200016e576040517f08c379a000000000000000000000000000000000000000000000000000000000815260040162000165906200075e565b60405180910390fd5b60016000848381518110620001885762000187620006df565b5b602002602001015173ffffffffffffffffffffffffffffffffffffffff1673ffffffffffffffffffffffffffffffffffffffff16815260200190815260200160002060009054906101000a900460ff16156200021b576040517f08c379a00000000000000000000000000000000000000000000000000000000081526004016200021290620007d0565b60405180910390fd5b6001806000858481518110620002365762000235620006df565b5b602002602001015173ffffffffffffffffffffffffffffffffffffffff1673ffffffffffffffffffffffffffffffffffffffff16815260200190815260200160002060006101000a81548160ff0219169083151502179055506000838281518110620002a757620002a6620006df565b5b60200260200101519080600181540180825580915050600190039060005260206000200160009091909190916101000a81548173ffffffffffffffffffffffffffffffffffffffff021916908373ffffffffffffffffffffffffffffffffffffffff16021790555080806200031c9062000821565b915050620000d5565b508060028190555050506200086e565b6000604051905090565b600080fd5b600080fd5b600080fd5b6000601f19601f8301169050919050565b7f4e487b7100000000000000000000000000000000000000000000000000000000600052604160045260246000fd5b62000399826200034e565b810181811067ffffffffffffffff82111715620003bb57620003ba6200035f565b5b80604052505050565b6000620003d062000335565b9050620003de82826200038e565b919050565b600067ffffffffffffffff8211156200040157620004006200035f565b5b602082029050602081019050919050565b600080fd5b600073ffffffffffffffffffffffffffffffffffffffff82169050919050565b6000620004448262000417565b9050919050565b620004568162000437565b81146200046257600080fd5b50565b60008151905062000476816200044b565b92915050565b6000620004936200048d84620003e3565b620003c4565b90508083825260208201905060208402830185811115620004b957620004b862000412565b5b835b81811015620004e65780620004d1888262000465565b845260208401935050602081019050620004bb565b5050509392505050565b600082601f83011262000508576200050762000349565b5b81516200051a8482602086016200047c565b91505092915050565b6000819050919050565b620005388162000523565b81146200054457600080fd5b50565b60008151905062000558816200052d565b92915050565b600080604083850312156200057857620005776200033f565b5b600083015167ffffffffffffffff81111562000599576200059862000344565b5b620005a785828601620004f0565b9250506020620005ba8582860162000547565b9150509250929050565b600082825260208201905092915050565b7f6f776e6572732061726520726571756972656420000000000000000000000000600082015250565b60006200060d601483620005c4565b91506200061a82620005d5565b602082019050919050565b600060208201905081810360008301526200064081620005fe565b9050919050565b7f696e76616c6964206e756d626572206f6620726571756972656420617070726f60008201527f76616c7300000000000000000000000000000000000000000000000000000000602082015250565b6000620006a5602483620005c4565b9150620006b28262000647565b604082019050919050565b60006020820190508181036000830152620006d88162000696565b9050919050565b7f4e487b7100000000000000000000000000000000000000000000000000000000600052603260045260246000fd5b7f696e76616c6964206f776e657200000000000000000000000000000000000000600082015250565b600062000746600d83620005c4565b915062000753826200070e565b602082019050919050565b60006020820190508181036000830152620007798162000737565b9050919050565b7f6475706c6963617465206f776e65720000000000000000000000000000000000600082015250565b6000620007b8600f83620005c4565b9150620007c58262000780565b602082019050919050565b60006020820190508181036000830152620007eb81620007a9565b9050919050565b7f4e487b7100000000000000000000000000000000000000000000000000000000600052601160045260246000fd5b60006200082e8262000523565b91507fffffffffffffffffffffffffffffffffffffffffffffffffffffffffffffffff8203620008635762000862620007f2565b5b600182019050919050565b611fa3806200087e6000396000f3fe6080604052600436106100a05760003560e01c806383920e901161006457806383920e90146102035780639ace38c21461022e578063a0e67e2b1461026f578063b561b9dd1461029a578063b759f954146102c5578063fe0d94c1146102ee576100f5565b8063025e7c27146100fa57806314de327f1461013757806320c5429b146101605780632f54bf6e1461018957806356c31637146101c6576100f5565b366100f5573373ffffffffffffffffffffffffffffffffffffffff167fe1fffcc4923d04b559f4d29a8bfc6cda04eb5b0d3c460751c2402c5c5cc9109c346040516100eb919061117f565b60405180910390a2005b600080fd5b34801561010657600080fd5b50610121600480360381019061011c91906111d0565b610317565b60405161012e919061123e565b60405180910390f35b34801561014357600080fd5b5061015e600480360381019061015991906112ea565b610356565b005b34801561016c57600080fd5b50610187600480360381019061018291906111d0565b610569565b005b34801561019557600080fd5b506101b060048036038101906101ab919061135e565b61083b565b6040516101bd91906113a6565b60405180910390f35b3480156101d257600080fd5b506101ed60048036038101906101e891906113c1565b61085b565b6040516101fa91906113a6565b60405180910390f35b34801561020f57600080fd5b5061021861088a565b60405161022591906115f6565b60405180910390f35b34801561023a57600080fd5b50610255600480360381019061025091906111d0565b610a00565b604051610266959493929190611662565b60405180910390f35b34801561027b57600080fd5b50610284610afb565b604051610291919061176b565b60405180910390f35b3480156102a657600080fd5b506102af610b89565b6040516102bc919061117f565b60405180910390f35b3480156102d157600080fd5b506102ec60048036038101906102e791906111d0565b610b8f565b005b3480156102fa57600080fd5b50610315600480360381019061031091906111d0565b610e64565b005b6000818154811061032757600080fd5b906000526020600020016000915054906101000a900473ffffffffffffffffffffffffffffffffffffffff1681565b600160003373ffffffffffffffffffffffffffffffffffffffff1673ffffffffffffffffffffffffffffffffffffffff16815260200190815260200160002060009054906101000a900460ff166103e2576040517f08c379a00000000000000000000000000000000000000000000000000000000081526004016103d9906117ea565b60405180910390fd5b60036040518060a001604052808673ffffffffffffffffffffffffffffffffffffffff16815260200185815260200184848080601f016020809104026020016040519081016040528093929190818152602001838380828437600081840152601f19601f8201169050808301925050505050505081526020016000151581526020016000815250908060018154018082558091505060019003906000526020600020906005020160009091909190915060008201518160000160006101000a81548173ffffffffffffffffffffffffffffffffffffffff021916908373ffffffffffffffffffffffffffffffffffffffff1602179055506020820151816001015560408201518160020190816104f89190611a45565b5060608201518160030160006101000a81548160ff02191690831515021790555060808201518160040155505060016003805490506105379190611b46565b7f08324b3d745b914e3abd4ffbfead91e3b78391a98c173202129215ab933adfbe60405160405180910390a250505050565b600160003373ffffffffffffffffffffffffffffffffffffffff1673ffffffffffffffffffffffffffffffffffffffff16815260200190815260200160002060009054906101000a900460ff166105f5576040517f08c379a00000000000000000000000000000000000000000000000000000000081526004016105ec906117ea565b60405180910390fd5b80600380549050811061063d576040517f08c379a000000000000000000000000000000000000000000000000000000000815260040161063490611bec565b60405180910390fd5b816003818154811061065257610651611c0c565b5b906000526020600020906005020160030160009054906101000a900460ff16156106b1576040517f08c379a00000000000000000000000000000000000000000000000000000000081526004016106a890611c87565b60405180910390fd5b6004600084815260200190815260200160002060003373ffffffffffffffffffffffffffffffffffffffff1673ffffffffffffffffffffffffffffffffffffffff16815260200190815260200160002060009054906101000a900460ff1661074e576040517f08c379a000000000000000000000000000000000000000000000000000000000815260040161074590611cf3565b60405180910390fd5b60006004600085815260200190815260200160002060003373ffffffffffffffffffffffffffffffffffffffff1673ffffffffffffffffffffffffffffffffffffffff16815260200190815260200160002060006101000a81548160ff021916908315150217905550600383815481106107cb576107ca611c0c565b5b906000526020600020906005020160040160008154809291906107ed90611d13565b9190505550823373ffffffffffffffffffffffffffffffffffffffff167fec9ab91322523c899ede7830ec9bfc992b5981cdcc27b91162fb23de5791117b60405160405180910390a3505050565b60016020528060005260406000206000915054906101000a900460ff1681565b60046020528160005260406000206020528060005260406000206000915091509054906101000a900460ff1681565b60606003805480602002602001604051908101604052809291908181526020016000905b828210156109f757838290600052602060002090600502016040518060a00160405290816000820160009054906101000a900473ffffffffffffffffffffffffffffffffffffffff1673ffffffffffffffffffffffffffffffffffffffff1673ffffffffffffffffffffffffffffffffffffffff1681526020016001820154815260200160028201805461094190611868565b80601f016020809104026020016040519081016040528092919081815260200182805461096d90611868565b80156109ba5780601f1061098f576101008083540402835291602001916109ba565b820191906000526020600020905b81548152906001019060200180831161099d57829003601f168201915b505050505081526020016003820160009054906101000a900460ff16151515158152602001600482015481525050815260200190600101906108ae565b50505050905090565b60038181548110610a1057600080fd5b90600052602060002090600502016000915090508060000160009054906101000a900473ffffffffffffffffffffffffffffffffffffffff1690806001015490806002018054610a5f90611868565b80601f0160208091040260200160405190810160405280929190818152602001828054610a8b90611868565b8015610ad85780601f10610aad57610100808354040283529160200191610ad8565b820191906000526020600020905b815481529060010190602001808311610abb57829003601f168201915b5050505050908060030160009054906101000a900460ff16908060040154905085565b60606000805480602002602001604051908101604052809291908181526020018280548015610b7f57602002820191906000526020600020905b8160009054906101000a900473ffffffffffffffffffffffffffffffffffffffff1673ffffffffffffffffffffffffffffffffffffffff1681526020019060010190808311610b35575b5050505050905090565b60025481565b600160003373ffffffffffffffffffffffffffffffffffffffff1673ffffffffffffffffffffffffffffffffffffffff16815260200190815260200160002060009054906101000a900460ff16610c1b576040517f08c379a0000000000000000000000000000000000000000000000000000000008152600401610c12906117ea565b60405180910390fd5b806003805490508110610c63576040517f08c379a0000000000000000000000000000000000000000000000000000000008152600401610c5a90611bec565b60405180910390fd5b816004600082815260200190815260200160002060003373ffffffffffffffffffffffffffffffffffffffff1673ffffffffffffffffffffffffffffffffffffffff16815260200190815260200160002060009054906101000a900460ff1615610d02576040517f08c379a0000000000000000000000000000000000000000000000000000000008152600401610cf990611d88565b60405180910390fd5b8260038181548110610d1757610d16611c0c565b5b906000526020600020906005020160030160009054906101000a900460ff1615610d76576040517f08c379a0000000000000000000000000000000000000000000000000000000008152600401610d6d90611c87565b60405180910390fd5b60016004600086815260200190815260200160002060003373ffffffffffffffffffffffffffffffffffffffff1673ffffffffffffffffffffffffffffffffffffffff16815260200190815260200160002060006101000a81548160ff02191690831515021790555060038481548110610df357610df2611c0c565b5b90600052602060002090600502016004016000815480929190610e1590611da8565b9190505550833373ffffffffffffffffffffffffffffffffffffffff167f90ec57f18fa7b15c6b8d5e4d1deb90796c74b2ff23d4d0cecad0cb42a96b312860405160405180910390a350505050565b600160003373ffffffffffffffffffffffffffffffffffffffff1673ffffffffffffffffffffffffffffffffffffffff16815260200190815260200160002060009054906101000a900460ff16610ef0576040517f08c379a0000000000000000000000000000000000000000000000000000000008152600401610ee7906117ea565b60405180910390fd5b806003805490508110610f38576040517f08c379a0000000000000000000000000000000000000000000000000000000008152600401610f2f90611bec565b60405180910390fd5b8160038181548110610f4d57610f4c611c0c565b5b906000526020600020906005020160030160009054906101000a900460ff1615610fac576040517f08c379a0000000000000000000000000000000000000000000000000000000008152600401610fa390611c87565b60405180910390fd5b60025460038481548110610fc357610fc2611c0c565b5b9060005260206000209060050201600401541015611016576040517f08c379a000000000000000000000000000000000000000000000000000000000815260040161100d90611e3c565b60405180910390fd5b60006003848154811061102c5761102b611c0c565b5b9060005260206000209060050201905060018160030160006101000a81548160ff02191690831515021790555060008160000160009054906101000a900473ffffffffffffffffffffffffffffffffffffffff1673ffffffffffffffffffffffffffffffffffffffff168260010154836002016040516110ac9190611eea565b60006040518083038185875af1925050503d80600081146110e9576040519150601f19603f3d011682016040523d82523d6000602084013e6110ee565b606091505b5050905080611132576040517f08c379a000000000000000000000000000000000000000000000000000000000815260040161112990611f4d565b60405180910390fd5b847fddb556f1d2c1ec821e910b019d3685b229db152a0ecd517ca7e24b8bd713928960405160405180910390a25050505050565b6000819050919050565b61117981611166565b82525050565b60006020820190506111946000830184611170565b92915050565b600080fd5b600080fd5b6111ad81611166565b81146111b857600080fd5b50565b6000813590506111ca816111a4565b92915050565b6000602082840312156111e6576111e561119a565b5b60006111f4848285016111bb565b91505092915050565b600073ffffffffffffffffffffffffffffffffffffffff82169050919050565b6000611228826111fd565b9050919050565b6112388161121d565b82525050565b6000602082019050611253600083018461122f565b92915050565b6112628161121d565b811461126d57600080fd5b50565b60008135905061127f81611259565b92915050565b600080fd5b600080fd5b600080fd5b60008083601f8401126112aa576112a9611285565b5b8235905067ffffffffffffffff8111156112c7576112c661128a565b5b6020830191508360018202830111156112e3576112e261128f565b5b9250929050565b600080600080606085870312156113045761130361119a565b5b600061131287828801611270565b9450506020611323878288016111bb565b935050604085013567ffffffffffffffff8111156113445761134361119f565b5b61135087828801611294565b925092505092959194509250565b6000602082840312156113745761137361119a565b5b600061138284828501611270565b91505092915050565b60008115159050919050565b6113a08161138b565b82525050565b60006020820190506113bb6000830184611397565b92915050565b600080604083850312156113d8576113d761119a565b5b60006113e6858286016111bb565b92505060206113f785828601611270565b9150509250929050565b600081519050919050565b600082825260208201905092915050565b6000819050602082019050919050565b6114368161121d565b82525050565b61144581611166565b82525050565b600081519050919050565b600082825260208201905092915050565b60005b8381101561148557808201518184015260208101905061146a565b60008484015250505050565b6000601f19601f8301169050919050565b60006114ad8261144b565b6114b78185611456565b93506114c7818560208601611467565b6114d081611491565b840191505092915050565b6114e48161138b565b82525050565b600060a083016000830151611502600086018261142d565b506020830151611515602086018261143c565b506040830151848203604086015261152d82826114a2565b915050606083015161154260608601826114db565b506080830151611555608086018261143c565b508091505092915050565b600061156c83836114ea565b905092915050565b6000602082019050919050565b600061158c82611401565b611596818561140c565b9350836020820285016115a88561141d565b8060005b858110156115e457848403895281516115c58582611560565b94506115d083611574565b925060208a019950506001810190506115ac565b50829750879550505050505092915050565b600060208201905081810360008301526116108184611581565b905092915050565b600082825260208201905092915050565b60006116348261144b565b61163e8185611618565b935061164e818560208601611467565b61165781611491565b840191505092915050565b600060a082019050611677600083018861122f565b6116846020830187611170565b81810360408301526116968186611629565b90506116a56060830185611397565b6116b26080830184611170565b9695505050505050565b600081519050919050565b600082825260208201905092915050565b6000819050602082019050919050565b60006116f4838361142d565b60208301905092915050565b6000602082019050919050565b6000611718826116bc565b61172281856116c7565b935061172d836116d8565b8060005b8381101561175e57815161174588826116e8565b975061175083611700565b925050600181019050611731565b5085935050505092915050565b60006020820190508181036000830152611785818461170d565b905092915050565b600082825260208201905092915050565b7f6e6f74206f776e65722100000000000000000000000000000000000000000000600082015250565b60006117d4600a8361178d565b91506117df8261179e565b602082019050919050565b60006020820190508181036000830152611803816117c7565b9050919050565b7f4e487b7100000000000000000000000000000000000000000000000000000000600052604160045260246000fd5b7f4e487b7100000000000000000000000000000000000000000000000000000000600052602260045260246000fd5b6000600282049050600182168061188057607f821691505b60208210810361189357611892611839565b5b50919050565b60008190508160005260206000209050919050565b60006020601f8301049050919050565b600082821b905092915050565b6000600883026118fb7fffffffffffffffffffffffffffffffffffffffffffffffffffffffffffffffff826118be565b61190586836118be565b95508019841693508086168417925050509392505050565b6000819050919050565b600061194261193d61193884611166565b61191d565b611166565b9050919050565b6000819050919050565b61195c83611927565b61197061196882611949565b8484546118cb565b825550505050565b600090565b611985611978565b611990818484611953565b505050565b5b818110156119b4576119a960008261197d565b600181019050611996565b5050565b601f8211156119f9576119ca81611899565b6119d3846118ae565b810160208510156119e2578190505b6119f66119ee856118ae565b830182611995565b50505b505050565b600082821c905092915050565b6000611a1c600019846008026119fe565b1980831691505092915050565b6000611a358383611a0b565b9150826002028217905092915050565b611a4e8261144b565b67ffffffffffffffff811115611a6757611a6661180a565b5b611a718254611868565b611a7c8282856119b8565b600060209050601f831160018114611aaf5760008415611a9d578287015190505b611aa78582611a29565b865550611b0f565b601f198416611abd86611899565b60005b82811015611ae557848901518255600182019150602085019450602081019050611ac0565b86831015611b025784890151611afe601f891682611a0b565b8355505b6001600288020188555050505b505050505050565b7f4e487b7100000000000000000000000000000000000000000000000000000000600052601160045260246000fd5b6000611b5182611166565b9150611b5c83611166565b9250828203905081811115611b7457611b73611b17565b5b92915050565b7f7472616e73616374696f6e20696e64657820646f6573206e6f7420657869737460008201527f7321000000000000000000000000000000000000000000000000000000000000602082015250565b6000611bd660228361178d565b9150611be182611b7a565b604082019050919050565b60006020820190508181036000830152611c0581611bc9565b9050919050565b7f4e487b7100000000000000000000000000000000000000000000000000000000600052603260045260246000fd5b7f616c726561647920657865637574656421000000000000000000000000000000600082015250565b6000611c7160118361178d565b9150611c7c82611c3b565b602082019050919050565b60006020820190508181036000830152611ca081611c64565b9050919050565b7f616c7265616479206e6f7420617070726f766564210000000000000000000000600082015250565b6000611cdd60158361178d565b9150611ce882611ca7565b602082019050919050565b60006020820190508181036000830152611d0c81611cd0565b9050919050565b6000611d1e82611166565b915060008203611d3157611d30611b17565b5b600182039050919050565b7f616c726561647920617070726f76656421000000000000000000000000000000600082015250565b6000611d7260118361178d565b9150611d7d82611d3c565b602082019050919050565b60006020820190508181036000830152611da181611d65565b9050919050565b6000611db382611166565b91507fffffffffffffffffffffffffffffffffffffffffffffffffffffffffffffffff8203611de557611de4611b17565b5b600182019050919050565b7f417070726f76616c73203c207265717569726564000000000000000000000000600082015250565b6000611e2660148361178d565b9150611e3182611df0565b602082019050919050565b60006020820190508181036000830152611e5581611e19565b9050919050565b600081905092915050565b60008154611e7481611868565b611e7e8186611e5c565b94506001821660008114611e995760018114611eae57611ee1565b60ff1983168652811515820286019350611ee1565b611eb785611899565b60005b83811015611ed957815481890152600182019150602081019050611eba565b838801955050505b50505092915050565b6000611ef68284611e67565b915081905092915050565b7f207472616e73616374696f6e206661696c656421000000000000000000000000600082015250565b6000611f3760148361178d565b9150611f4282611f01565b602082019050919050565b60006020820190508181036000830152611f6681611f2a565b905091905056fea264697066735822122050b21dfce7b211a0bcb9955513eac5c90d445753b54a483f2539dd7802dac2bb64736f6c63430008110033",
  "immutableReferences": {},
  "source": "// SPDX-License-Identifier: LGPL-3.0-only\r\npragma solidity >=0.7.0 <0.9.0;\r\n\r\ncontract MultisigWallet {\r\n    event Deposit(address indexed sender, uint amount);\r\n    event Submit(uint indexed txIndex );\r\n    event Approve(address indexed owner, uint indexed txIndex);\r\n    event Revoke(address indexed owner, uint indexed txIndex);\r\n    event Execute( uint indexed txIndex);\r\n\r\n    struct Transaction {\r\n        address to;\r\n        uint value;\r\n        bytes data;\r\n        bool executed;\r\n        uint nbrApprovals;\r\n    }\r\n\r\n    address[] public owners;\r\n    mapping(address => bool) public isOwner;\r\n    uint public NbrApprovalRequired;\r\n\r\n    Transaction[] public transactions;\r\n    mapping(uint => mapping(address => bool)) public isApproved;\r\n\r\n    modifier onlyOwner() {\r\n        require(isOwner[msg.sender], \"not owner!\");\r\n        _;\r\n    }\r\n    modifier txIndexExists(uint _txIndex) {\r\n        require(_txIndex < transactions.length, \"transaction index does not exists!\");\r\n        _;\r\n    }\r\n    modifier notApproved(uint _txIndex) {\r\n        require(!isApproved[_txIndex][msg.sender], \"already approved!\");\r\n        _;\r\n    }\r\n    modifier notExecuted(uint _txIndex) {\r\n        require(!transactions[_txIndex].executed, \"already executed!\");\r\n        _;\r\n    }\r\n\r\n    constructor(address[] memory _owners , uint _required ){\r\n        require(_owners.length > 0, \"owners are required \");\r\n        require(_required > 0 && _required <= _owners.length , \"invalid number of required approvals\");\r\n\r\n        for( uint i ; i < _owners.length ; i++){\r\n            require(_owners[i] != address(0), \"invalid owner\");\r\n            require(!isOwner[_owners[i]], \"duplicate owner\");\r\n\r\n            isOwner[_owners[i]] = true;\r\n            owners.push(_owners[i]);\r\n        }\r\n        \r\n        NbrApprovalRequired = _required ;\r\n    }\r\n\r\n    receive() external payable {\r\n        emit Deposit(msg.sender, msg.value);\r\n    }\r\n\r\n    function submit(address _to, uint _value, bytes calldata _data) \r\n        external\r\n        onlyOwner\r\n    {\r\n        transactions.push(Transaction({\r\n            to: _to,\r\n            value: _value,\r\n            data: _data,\r\n            executed: false,\r\n            nbrApprovals: 0\r\n        }));\r\n        emit Submit(transactions.length - 1);\r\n    }\r\n\r\n    function approve(uint _txIndex) \r\n        external \r\n        onlyOwner\r\n        txIndexExists(_txIndex)\r\n        notApproved(_txIndex)\r\n        notExecuted(_txIndex)\r\n    {\r\n        isApproved[_txIndex][msg.sender] = true;\r\n        transactions[_txIndex].nbrApprovals ++;\r\n        emit Approve(msg.sender, _txIndex);\r\n    }\r\n\r\n    function execute(uint _txIndex) \r\n        external \r\n        onlyOwner \r\n        txIndexExists(_txIndex) \r\n        notExecuted(_txIndex) \r\n    {\r\n        require(transactions[_txIndex].nbrApprovals >= NbrApprovalRequired, \"Approvals < required\");\r\n        Transaction storage transaction = transactions[_txIndex];\r\n\r\n        transaction.executed = true;\r\n\r\n        (bool success, ) = transaction.to.call{value: transaction.value}(\r\n            transaction.data\r\n        );\r\n\r\n        require(success , \" transaction failed!\");\r\n\r\n        emit Execute(_txIndex);\r\n    }\r\n\r\n    function revoke(uint _txIndex) \r\n        external\r\n        onlyOwner\r\n        txIndexExists(_txIndex)\r\n        notExecuted(_txIndex)\r\n    {\r\n        require(isApproved[_txIndex][msg.sender], \"already not approved!\");\r\n        isApproved[_txIndex][msg.sender] = false ;\r\n        transactions[_txIndex].nbrApprovals --;\r\n        emit Revoke(msg.sender, _txIndex);\r\n    }\r\n\r\n    function getOwners() public view returns(address[] memory){\r\n        return owners;\r\n    }\r\n\r\n    function getTransactions() public view returns(Transaction[] memory){\r\n        return transactions;\r\n    }\r\n}",
  "sourcePath": "C:\\Users\\pc\\Desktop\\multi-sig-wallet\\truffle\\contracts\\MultisigWallet.sol",
  "compiler": {
    "name": "solc",
    "version": "0.8.17+commit.8df45f5f.Emscripten.clang"
  },
  "schemaVersion": "3.4.11",
  "updatedAt": "2023-02-09T15:29:48.447Z",
  "networkType": "ethereum",
  "devdoc": {
    "kind": "dev",
    "methods": {},
    "version": 1
  },
  "userdoc": {
    "kind": "user",
    "methods": {},
    "version": 1
  }
}